{
  "_format": "hh-sol-artifact-1",
  "contractName": "FlashLoadSmartRouter",
  "sourceName": "contracts/FlashLoadSmartRouter.sol",
  "abi": [
    {
      "inputs": [
        {
          "internalType": "address",
          "name": "_sra",
          "type": "address"
        }
      ],
      "stateMutability": "nonpayable",
      "type": "constructor"
    },
    {
      "inputs": [],
      "name": "smartRouterAddress",
      "outputs": [
        {
          "internalType": "address",
          "name": "",
          "type": "address"
        }
      ],
      "stateMutability": "view",
      "type": "function"
    },
    {
      "inputs": [
        {
          "internalType": "address",
          "name": "inCoinAddress",
          "type": "address"
        },
        {
          "internalType": "uint256",
          "name": "approvingSwapIn",
          "type": "uint256"
        },
        {
          "internalType": "bytes",
          "name": "callData0",
          "type": "bytes"
        },
        {
          "internalType": "address",
          "name": "minCoinAddress",
          "type": "address"
        },
        {
          "internalType": "bytes",
          "name": "callData1",
          "type": "bytes"
        }
      ],
      "name": "trade",
      "outputs": [],
      "stateMutability": "nonpayable",
      "type": "function"
    }
  ],
  "bytecode": "0x608060405234801561001057600080fd5b506040516110113803806110118339818101604052810190610032919061014a565b600073ffffffffffffffffffffffffffffffffffffffff168173ffffffffffffffffffffffffffffffffffffffff16036100a1576040517f08c379a0000000000000000000000000000000000000000000000000000000008152600401610098906101d4565b60405180910390fd5b806000806101000a81548173ffffffffffffffffffffffffffffffffffffffff021916908373ffffffffffffffffffffffffffffffffffffffff160217905550506101f4565b600080fd5b600073ffffffffffffffffffffffffffffffffffffffff82169050919050565b6000610117826100ec565b9050919050565b6101278161010c565b811461013257600080fd5b50565b6000815190506101448161011e565b92915050565b6000602082840312156101605761015f6100e7565b5b600061016e84828501610135565b91505092915050565b600082825260208201905092915050565b7f496e76616c696420726f75746572206164647265737300000000000000000000600082015250565b60006101be601683610177565b91506101c982610188565b602082019050919050565b600060208201905081810360008301526101ed816101b1565b9050919050565b610e0e806102036000396000f3fe608060405234801561001057600080fd5b50600436106100365760003560e01c80637d8413671461003b578063d62b173e14610057575b600080fd5b610055600480360381019061005091906109b0565b610075565b005b61005f61066e565b60405161006c9190610a7b565b60405180910390f35b6100b36040518060400160405280600b81526020017f7472616465207374617274000000000000000000000000000000000000000000815250610692565b6100bc8761072b565b6100c53361072b565b6100ce3061072b565b6100d7866107c4565b8673ffffffffffffffffffffffffffffffffffffffff166323b872dd3360008054906101000a900473ffffffffffffffffffffffffffffffffffffffff16896040518463ffffffff1660e01b815260040161013493929190610aa5565b6020604051808303816000875af1158015610153573d6000803e3d6000fd5b505050506040513d601f19601f820116820180604052508101906101779190610b14565b506101b66040518060400160405280601581526020017f7472616465207472616e7366657246726f6d206f6b0000000000000000000000815250610692565b60008060008054906101000a900473ffffffffffffffffffffffffffffffffffffffff1673ffffffffffffffffffffffffffffffffffffffff168787604051610200929190610b80565b6000604051808303816000865af19150503d806000811461023d576040519150601f19603f3d011682016040523d82523d6000602084013e610242565b606091505b509150915081610287576040517f08c379a000000000000000000000000000000000000000000000000000000000815260040161027e90610bf6565b60405180910390fd5b6102c56040518060400160405280601481526020017f7472616465206669727374207472616465206f6b000000000000000000000000815250610692565b8473ffffffffffffffffffffffffffffffffffffffff166323b872dd3060008054906101000a900473ffffffffffffffffffffffffffffffffffffffff168873ffffffffffffffffffffffffffffffffffffffff166370a08231306040518263ffffffff1660e01b815260040161033c9190610a7b565b602060405180830381865afa158015610359573d6000803e3d6000fd5b505050506040513d601f19601f8201168201806040525081019061037d9190610c2b565b6040518463ffffffff1660e01b815260040161039b93929190610aa5565b6020604051808303816000875af11580156103ba573d6000803e3d6000fd5b505050506040513d601f19601f820116820180604052508101906103de9190610b14565b5061041d6040518060400160405280601181526020017f7472616465207472616e73666572206f6b000000000000000000000000000000815250610692565b60008054906101000a900473ffffffffffffffffffffffffffffffffffffffff1673ffffffffffffffffffffffffffffffffffffffff168484604051610464929190610b80565b6000604051808303816000865af19150503d80600081146104a1576040519150601f19603f3d011682016040523d82523d6000602084013e6104a6565b606091505b508092508193505050816104ef576040517f08c379a00000000000000000000000000000000000000000000000000000000081526004016104e690610ca4565b60405180910390fd5b61052d6040518060400160405280601581526020017f7472616465207365636f6e64207472616465206f6b0000000000000000000000815250610692565b8873ffffffffffffffffffffffffffffffffffffffff1663a9059cbb338b73ffffffffffffffffffffffffffffffffffffffff166370a08231306040518263ffffffff1660e01b81526004016105839190610a7b565b602060405180830381865afa1580156105a0573d6000803e3d6000fd5b505050506040513d601f19601f820116820180604052508101906105c49190610c2b565b6040518363ffffffff1660e01b81526004016105e1929190610cc4565b6020604051808303816000875af1158015610600573d6000803e3d6000fd5b505050506040513d601f19601f820116820180604052508101906106249190610b14565b506106636040518060400160405280601181526020017f7472616465207472616e73666572206f6b000000000000000000000000000000815250610692565b505050505050505050565b60008054906101000a900473ffffffffffffffffffffffffffffffffffffffff1681565b610728816040516024016106a69190610d6c565b6040516020818303038152906040527f41304fac000000000000000000000000000000000000000000000000000000007bffffffffffffffffffffffffffffffffffffffffffffffffffffffff19166020820180517bffffffffffffffffffffffffffffffffffffffffffffffffffffffff838183161783525050505061085d565b50565b6107c18160405160240161073f9190610a7b565b6040516020818303038152906040527f2c2ecbc2000000000000000000000000000000000000000000000000000000007bffffffffffffffffffffffffffffffffffffffffffffffffffffffff19166020820180517bffffffffffffffffffffffffffffffffffffffffffffffffffffffff838183161783525050505061085d565b50565b61085a816040516024016107d89190610d8e565b6040516020818303038152906040527ff82c50f1000000000000000000000000000000000000000000000000000000007bffffffffffffffffffffffffffffffffffffffffffffffffffffffff19166020820180517bffffffffffffffffffffffffffffffffffffffffffffffffffffffff838183161783525050505061085d565b50565b6108748161086c610877610898565b63ffffffff16565b50565b60006a636f6e736f6c652e6c6f679050600080835160208501845afa505050565b6108a3819050919050565b6108ab610da9565b565b600080fd5b600080fd5b600073ffffffffffffffffffffffffffffffffffffffff82169050919050565b60006108e2826108b7565b9050919050565b6108f2816108d7565b81146108fd57600080fd5b50565b60008135905061090f816108e9565b92915050565b6000819050919050565b61092881610915565b811461093357600080fd5b50565b6000813590506109458161091f565b92915050565b600080fd5b600080fd5b600080fd5b60008083601f8401126109705761096f61094b565b5b8235905067ffffffffffffffff81111561098d5761098c610950565b5b6020830191508360018202830111156109a9576109a8610955565b5b9250929050565b600080600080600080600060a0888a0312156109cf576109ce6108ad565b5b60006109dd8a828b01610900565b97505060206109ee8a828b01610936565b965050604088013567ffffffffffffffff811115610a0f57610a0e6108b2565b5b610a1b8a828b0161095a565b95509550506060610a2e8a828b01610900565b935050608088013567ffffffffffffffff811115610a4f57610a4e6108b2565b5b610a5b8a828b0161095a565b925092505092959891949750929550565b610a75816108d7565b82525050565b6000602082019050610a906000830184610a6c565b92915050565b610a9f81610915565b82525050565b6000606082019050610aba6000830186610a6c565b610ac76020830185610a6c565b610ad46040830184610a96565b949350505050565b60008115159050919050565b610af181610adc565b8114610afc57600080fd5b50565b600081519050610b0e81610ae8565b92915050565b600060208284031215610b2a57610b296108ad565b5b6000610b3884828501610aff565b91505092915050565b600081905092915050565b82818337600083830152505050565b6000610b678385610b41565b9350610b74838584610b4c565b82840190509392505050565b6000610b8d828486610b5b565b91508190509392505050565b600082825260208201905092915050565b7f6669727374207472616465206661696c65640000000000000000000000000000600082015250565b6000610be0601283610b99565b9150610beb82610baa565b602082019050919050565b60006020820190508181036000830152610c0f81610bd3565b9050919050565b600081519050610c258161091f565b92915050565b600060208284031215610c4157610c406108ad565b5b6000610c4f84828501610c16565b91505092915050565b7f7365636f6e64207472616465206661696c656400000000000000000000000000600082015250565b6000610c8e601383610b99565b9150610c9982610c58565b602082019050919050565b60006020820190508181036000830152610cbd81610c81565b9050919050565b6000604082019050610cd96000830185610a6c565b610ce66020830184610a96565b9392505050565b600081519050919050565b60005b83811015610d16578082015181840152602081019050610cfb565b60008484015250505050565b6000601f19601f8301169050919050565b6000610d3e82610ced565b610d488185610b99565b9350610d58818560208601610cf8565b610d6181610d22565b840191505092915050565b60006020820190508181036000830152610d868184610d33565b905092915050565b6000602082019050610da36000830184610a96565b92915050565b7f4e487b7100000000000000000000000000000000000000000000000000000000600052605160045260246000fdfea2646970667358221220aad5e76db025e76c545aa37dca028f6a6d73d389d303fb240b392097d512a48064736f6c634300081c0033",
  "linkReferences": {},
  "deployedLinkReferences": {}
}